:100000003CC049C048C047C046C045C0E4C143C029
:1000100042C041C040C03FC03EC03DC03CC03BC0EC
:100020003AC039C038C000003A0037000000310043
:1000300000003B00380000003200000039003600AC
:10004000000030000404010104040404040202025C
:100050000202020202010102020104081020400112
:10006000020408102040800400000000000000028C
:100070000000000103040000000011241FBECFEDAA
:10008000CDBF20E0A0E6B0E001C01D92AA36B207C5
:10009000E1F7EBD16CC2B4CF813021F480B78F7718
:1000A00080BF0895823019F480B78F7DF9CF8330F7
:1000B00021F48FB58F778FBD08958430E9F78FB520
:1000C0008F7DF9CFCF93DF93282F30E0F901E859E6
:1000D000FF4F8491F901EA5AFF4FD491F901EC5B8B
:1000E000FF4FC491CC2399F08111D6DFEC2FF0E0C3
:1000F000EE0FFF1FE65CFF4FA591B491EC91ED234D
:1001000081E090E009F480E0DF91CF91089580E0F4
:1001100090E0FACF1F93CF93DF93282F30E0F901BF
:10012000E859FF4F8491F901EA5AFF4FD491F90140
:10013000EC5BFF4FC491CC23A1F0162F8111ACDFF3
:10014000EC2FF0E0EE0FFF1FE05DFF4FA591B491A3
:100150008FB711110AC0F894EC91D095DE23DC938F
:100160008FBFDF91CF911F910895F894EC91DE2B12
:10017000F6CFCF93DF9390E0FC01EA5AFF4F249132
:100180008C5B9F4FFC0184918823D1F090E0880F15
:10019000991FFC01EA5DFF4FA591B491FC01E05D60
:1001A000FF4FC591D491623071F49FB7F8943C91A0
:1001B000822F809583238C93E8812E2B28839FBFE9
:1001C000DF91CF9108958FB7F894EC912E2B2C935B
:1001D0008FBFF6CF3FB7F89480916600909167008B
:1001E000A0916800B091690022B708B601FE05C071
:1001F0002F3F19F00196A11DB11D3FBFBA2FA92FA6
:10020000982F8827BC01CD01620F711D811D911DA2
:1002100043E0660F771F881F991F4A95D1F708950D
:10022000CF92DF92EF92FF92CF93DF936B017C012D
:10023000D1DFEB01CFDF6C1B7D0B683E7340A0F07C
:10024000C114D104E104F10439F4DF91CF91FF909E
:10025000EF90DF90CF90089581E0C81AD108E108AF
:10026000F108C851DC4FE6CFC114D104E104F10418
:1002700009F7EBCFCF93DF93D62FC42F23DF23E0F3
:10028000892B59F08D2F1EDF22E0892B31F08C2F26
:1002900019DF21E0892B09F020E0822FDF91CF9137
:1002A0000895CF93DF9380E10DDF892B09F051C0D2
:1002B00061E086E02FDF61E084E02CDF60E47FE135
:1002C00080E090E0ADDF61E085E024DF61E081E087
:1002D00021DF81E080936000D4E1C0E04FE06EE078
:1002E0008DE0C8DF833029F580916000882309F113
:1002F00010926000DAE0C0E062E370E080E090E03D
:100300008FDFCF5F88E0DEDE0197F1F460E085E00B
:1003100001DF60E086E0FEDE60E084E0FBDE60E0BE
:1003200080E0F8DE60E47FE180E090E0DF91CF9153
:1003300077CFCD13E1CF81E0C5DE61E0892B09F0F5
:1003400060E081E0E7DED7CF80E1BCDE892BF1F60B
:10035000C5CFDF91CF910895CF93DF938CE0B2DECC
:10036000892BB1F561E085E0D5DE61E080E0D2DE89
:1003700081E080936000D4E1C0E04BE06AE089E076
:1003800079DF8330D1F4809160008823B1F010923E
:100390006000DAE0C0E062E370E080E090E040DF1F
:1003A000CF5F8CE08FDE892B41F360E085E0B2DE29
:1003B00060E080E0DF91CF91ADCECD13ECCF80E057
:1003C00081DE61E0892B09F060E080E0A3DEE2CF0E
:1003D000DF91CF9108951F920F920FB60F921124C3
:1003E0002F933F938F939F93AF93BF93809162001E
:1003F00090916300A0916400B0916500309161001C
:1004000026E0230F2D3768F129E8230F0396A11D5D
:10041000B11D209361008093620090936300A093CC
:100420006400B09365008091660090916700A09190
:100430006800B09169000196A11DB11D809366000E
:1004400090936700A0936800B0936900BF91AF914B
:100450009F918F913F912F910F900FBE0F901F9002
:1004600018950296A11DB11DD4CF81B781BF80B769
:10047000826080BF80B7816080BF83B7887F8260E1
:1004800083BF789489B7826089BF62E089E071DEBA
:1004900062E08AE06EDE62E08BE06BDE62E08CE0C0
:1004A00068DE62E08DE065DE62E08EE062DE62E0E2
:1004B0008FE05FDE62E080E15CDE62E088E059DED2
:1004C00061E080E056DE61E081E053DE61E084E0DF
:1004D00050DE61E085E04DDE61E086E04ADE4BE023
:1004E0006AE089E0C7DE81110DC061E085E012DEBF
:1004F00033DF4BE06AE089E0BDDE8230C9F760E0BF
:1005000085E008DE29DF88E0DDDD892B41F74FE05B
:100510006EE08DE0AFDE811121C061E084E0FADDA4
:1005200061E086E0F7DD60E47FE180E090E078DE86
:1005300061E085E0EFDDB5DE88E0C4DD019781F4A0
:1005400060E085E0E7DD60E086E0E4DD60E084E037
:10055000E1DD60E47FE180E090E062DEA2DEBFCF1B
:100560004FE06EE08DE086DE823029F7E9CFF89427
:02057000FFCFBB
:00000001FF
